{
  "contractName": "Resume",
  "abi": [
    {
      "constant": true,
      "inputs": [
        {
          "name": "",
          "type": "uint256"
        }
      ],
      "name": "users",
      "outputs": [
        {
          "name": "name",
          "type": "string"
        },
        {
          "name": "date_joined",
          "type": "uint256"
        },
        {
          "name": "userAddr",
          "type": "address"
        }
      ],
      "payable": false,
      "stateMutability": "view",
      "type": "function",
      "signature": "0x365b98b2"
    },
    {
      "constant": true,
      "inputs": [
        {
          "name": "",
          "type": "uint256"
        },
        {
          "name": "",
          "type": "uint256"
        }
      ],
      "name": "resume_queues",
      "outputs": [
        {
          "name": "",
          "type": "uint256"
        }
      ],
      "payable": false,
      "stateMutability": "view",
      "type": "function",
      "signature": "0x6a8b8b45"
    },
    {
      "constant": false,
      "inputs": [],
      "name": "renounceOwnership",
      "outputs": [],
      "payable": false,
      "stateMutability": "nonpayable",
      "type": "function",
      "signature": "0x715018a6"
    },
    {
      "constant": true,
      "inputs": [],
      "name": "owner",
      "outputs": [
        {
          "name": "",
          "type": "address"
        }
      ],
      "payable": false,
      "stateMutability": "view",
      "type": "function",
      "signature": "0x8da5cb5b"
    },
    {
      "constant": true,
      "inputs": [],
      "name": "isOwner",
      "outputs": [
        {
          "name": "",
          "type": "bool"
        }
      ],
      "payable": false,
      "stateMutability": "view",
      "type": "function",
      "signature": "0x8f32d59b"
    },
    {
      "constant": true,
      "inputs": [],
      "name": "user_signup_fee",
      "outputs": [
        {
          "name": "",
          "type": "uint256"
        }
      ],
      "payable": false,
      "stateMutability": "view",
      "type": "function",
      "signature": "0xbb1e8bec"
    },
    {
      "constant": true,
      "inputs": [
        {
          "name": "",
          "type": "uint256"
        }
      ],
      "name": "institutions",
      "outputs": [
        {
          "name": "name",
          "type": "string"
        },
        {
          "name": "date_joined",
          "type": "uint256"
        },
        {
          "name": "itype",
          "type": "uint8"
        },
        {
          "name": "institutionAddr",
          "type": "address"
        }
      ],
      "payable": false,
      "stateMutability": "view",
      "type": "function",
      "signature": "0xc3b59d00"
    },
    {
      "constant": true,
      "inputs": [
        {
          "name": "",
          "type": "uint256"
        },
        {
          "name": "",
          "type": "uint256"
        }
      ],
      "name": "resumes",
      "outputs": [
        {
          "name": "",
          "type": "uint256"
        }
      ],
      "payable": false,
      "stateMutability": "view",
      "type": "function",
      "signature": "0xd32ad451"
    },
    {
      "constant": false,
      "inputs": [
        {
          "name": "newOwner",
          "type": "address"
        }
      ],
      "name": "transferOwnership",
      "outputs": [],
      "payable": false,
      "stateMutability": "nonpayable",
      "type": "function",
      "signature": "0xf2fde38b"
    },
    {
      "inputs": [],
      "payable": true,
      "stateMutability": "payable",
      "type": "constructor",
      "signature": "constructor"
    },
    {
      "anonymous": false,
      "inputs": [
        {
          "indexed": false,
          "name": "adminAddr",
          "type": "address"
        }
      ],
      "name": "AddedAdmin",
      "type": "event",
      "signature": "0x7849194239ab1d31b991b5436d81370256505cf25eaafbcccbc66acd11896916"
    },
    {
      "anonymous": false,
      "inputs": [
        {
          "indexed": false,
          "name": "fee",
          "type": "uint256"
        }
      ],
      "name": "SignUpFeeSet",
      "type": "event",
      "signature": "0x86119a802f33a1f9c2aaff7546bd06a623edbac925804b89ee6d4bc11f82fc32"
    },
    {
      "anonymous": false,
      "inputs": [
        {
          "indexed": false,
          "name": "price",
          "type": "uint256"
        }
      ],
      "name": "SetPrice",
      "type": "event",
      "signature": "0x4f5539c0409dfc4cb06f64cbd31237e1fbfe443f531584bf4dd77ec7fc5ba7b1"
    },
    {
      "anonymous": false,
      "inputs": [
        {
          "indexed": false,
          "name": "UniversityID",
          "type": "uint256"
        }
      ],
      "name": "AddedInstitution",
      "type": "event",
      "signature": "0x97894fc9a87999c66824c2d0e76ee026b2cbc04042167dfa0a4669620565f8c7"
    },
    {
      "anonymous": false,
      "inputs": [
        {
          "indexed": false,
          "name": "UserID",
          "type": "uint256"
        }
      ],
      "name": "AddedUser",
      "type": "event",
      "signature": "0x4747bdfb8404ad43e6414fbb1376256333e3bcbb6a52700aaa6463651c7828b2"
    },
    {
      "anonymous": false,
      "inputs": [
        {
          "indexed": false,
          "name": "EntryID",
          "type": "uint256"
        }
      ],
      "name": "EntryCreated",
      "type": "event",
      "signature": "0x2911103f2b828776197685f9c4c17938f9c3d58e3dbcb6ec42f7a4e5523f0560"
    },
    {
      "anonymous": false,
      "inputs": [
        {
          "indexed": false,
          "name": "EntryID",
          "type": "uint256"
        },
        {
          "indexed": false,
          "name": "UserID",
          "type": "uint256"
        }
      ],
      "name": "AddedtoQueue",
      "type": "event",
      "signature": "0xf0b4a128dcd4b065fbbc439cf7a6240594dd43de84645b9d77f49409ce47b939"
    },
    {
      "anonymous": false,
      "inputs": [
        {
          "indexed": false,
          "name": "EntryID",
          "type": "uint256"
        },
        {
          "indexed": false,
          "name": "UserID",
          "type": "uint256"
        }
      ],
      "name": "AddedtoResume",
      "type": "event",
      "signature": "0x203c05d0adb13ba1dc0333e0f63d5e03a63397105465154d650bab4ad919725e"
    },
    {
      "anonymous": false,
      "inputs": [
        {
          "indexed": false,
          "name": "EntryID",
          "type": "uint256"
        },
        {
          "indexed": false,
          "name": "UserID",
          "type": "uint256"
        }
      ],
      "name": "EntryRejected",
      "type": "event",
      "signature": "0xcdb571aec13530be3eed733414e6c0bff296b99e6a1a9891c3c868783e78c224"
    },
    {
      "anonymous": false,
      "inputs": [
        {
          "indexed": true,
          "name": "previousOwner",
          "type": "address"
        },
        {
          "indexed": true,
          "name": "newOwner",
          "type": "address"
        }
      ],
      "name": "OwnershipTransferred",
      "type": "event",
      "signature": "0x8be0079c531659141344cd1fd0a4f28419497f9722a3daafe3b4186f6b6457e0"
    },
    {
      "constant": false,
      "inputs": [
        {
          "name": "admin",
          "type": "address"
        }
      ],
      "name": "addAdmin",
      "outputs": [
        {
          "name": "",
          "type": "bool"
        }
      ],
      "payable": false,
      "stateMutability": "nonpayable",
      "type": "function",
      "signature": "0x70480275"
    },
    {
      "constant": false,
      "inputs": [
        {
          "name": "_fee",
          "type": "uint256"
        }
      ],
      "name": "setSignUpFee",
      "outputs": [
        {
          "name": "",
          "type": "bool"
        }
      ],
      "payable": false,
      "stateMutability": "nonpayable",
      "type": "function",
      "signature": "0x898158e8"
    },
    {
      "constant": false,
      "inputs": [
        {
          "name": "_name",
          "type": "string"
        }
      ],
      "name": "signUpUser",
      "outputs": [
        {
          "name": "",
          "type": "bool"
        }
      ],
      "payable": true,
      "stateMutability": "payable",
      "type": "function",
      "signature": "0x45004310"
    },
    {
      "constant": false,
      "inputs": [
        {
          "name": "_name",
          "type": "string"
        },
        {
          "name": "_institutionAddr",
          "type": "address"
        },
        {
          "name": "_itype",
          "type": "uint8"
        }
      ],
      "name": "addInstitution",
      "outputs": [
        {
          "name": "",
          "type": "bool"
        }
      ],
      "payable": false,
      "stateMutability": "nonpayable",
      "type": "function",
      "signature": "0xc3763ff4"
    },
    {
      "constant": false,
      "inputs": [
        {
          "name": "_recipient",
          "type": "address"
        },
        {
          "name": "_entry_title",
          "type": "string"
        },
        {
          "name": "_degree_descr",
          "type": "string"
        },
        {
          "name": "_start_date",
          "type": "uint256"
        },
        {
          "name": "_end_date",
          "type": "uint256"
        },
        {
          "name": "_etype",
          "type": "uint8"
        },
        {
          "name": "_review",
          "type": "string"
        }
      ],
      "name": "addEntry",
      "outputs": [
        {
          "name": "",
          "type": "bool"
        }
      ],
      "payable": false,
      "stateMutability": "nonpayable",
      "type": "function",
      "signature": "0x79b1a37f"
    },
    {
      "constant": false,
      "inputs": [
        {
          "name": "_entryID",
          "type": "uint256"
        },
        {
          "name": "_doYouWantToApprove",
          "type": "bool"
        }
      ],
      "name": "approveEntry",
      "outputs": [
        {
          "name": "",
          "type": "bool"
        }
      ],
      "payable": false,
      "stateMutability": "nonpayable",
      "type": "function",
      "signature": "0x01c871e9"
    },
    {
      "constant": true,
      "inputs": [],
      "name": "showMyResumeQueue",
      "outputs": [
        {
          "name": "entryID",
          "type": "uint256"
        },
        {
          "name": "entry_title",
          "type": "string"
        },
        {
          "name": "degree_descr",
          "type": "string"
        },
        {
          "name": "institution_name",
          "type": "string"
        },
        {
          "name": "date_received",
          "type": "uint256"
        },
        {
          "name": "start_date",
          "type": "uint256"
        },
        {
          "name": "end_date",
          "type": "uint256"
        },
        {
          "name": "review",
          "type": "string"
        }
      ],
      "payable": false,
      "stateMutability": "view",
      "type": "function",
      "signature": "0x0513d50b"
    },
    {
      "constant": true,
      "inputs": [
        {
          "name": "_UserID",
          "type": "uint256"
        },
        {
          "name": "_entryElement",
          "type": "uint256"
        }
      ],
      "name": "viewResume",
      "outputs": [
        {
          "name": "entryID",
          "type": "uint256"
        },
        {
          "name": "entry_title",
          "type": "string"
        },
        {
          "name": "degree_descr",
          "type": "string"
        },
        {
          "name": "institution_name",
          "type": "string"
        },
        {
          "name": "date_received",
          "type": "uint256"
        }
      ],
      "payable": false,
      "stateMutability": "view",
      "type": "function",
      "signature": "0xdbb7eed1"
    },
    {
      "constant": true,
      "inputs": [],
      "name": "checkQueueSize",
      "outputs": [
        {
          "name": "_queueSize",
          "type": "uint256"
        }
      ],
      "payable": false,
      "stateMutability": "view",
      "type": "function",
      "signature": "0x7436dc25"
    },
    {
      "constant": true,
      "inputs": [
        {
          "name": "_UserID",
          "type": "uint256"
        }
      ],
      "name": "checkResumeSize",
      "outputs": [
        {
          "name": "_resumeSize",
          "type": "uint256"
        }
      ],
      "payable": false,
      "stateMutability": "view",
      "type": "function",
      "signature": "0xe0acbf04"
    },
    {
      "constant": true,
      "inputs": [
        {
          "name": "_adminAddr",
          "type": "address"
        }
      ],
      "name": "isAdmin",
      "outputs": [
        {
          "name": "",
          "type": "bool"
        }
      ],
      "payable": false,
      "stateMutability": "view",
      "type": "function",
      "signature": "0x24d7806c"
    },
    {
      "constant": true,
      "inputs": [],
      "name": "checkUserID",
      "outputs": [
        {
          "name": "_UserID",
          "type": "uint256"
        }
      ],
      "payable": false,
      "stateMutability": "view",
      "type": "function",
      "signature": "0xebb9454c"
    },
    {
      "constant": true,
      "inputs": [],
      "name": "checkSignUpDate",
      "outputs": [
        {
          "name": "_year",
          "type": "uint256"
        },
        {
          "name": "_month",
          "type": "uint256"
        },
        {
          "name": "_day",
          "type": "uint256"
        }
      ],
      "payable": false,
      "stateMutability": "view",
      "type": "function",
      "signature": "0xaf432e12"
    }
  ],
  "bytecode": "0x6080604052336000806101000a81548173ffffffffffffffffffffffffffffffffffffffff021916908373ffffffffffffffffffffffffffffffffffffffff1602179055506000809054906101000a900473ffffffffffffffffffffffffffffffffffffffff1673ffffffffffffffffffffffffffffffffffffffff16600073ffffffffffffffffffffffffffffffffffffffff167f8be0079c531659141344cd1fd0a4f28419497f9722a3daafe3b4186f6b6457e060405160405180910390a333600160006101000a81548173ffffffffffffffffffffffffffffffffffffffff021916908373ffffffffffffffffffffffffffffffffffffffff160217905550600160056000600160009054906101000a900473ffffffffffffffffffffffffffffffffffffffff1673ffffffffffffffffffffffffffffffffffffffff1673ffffffffffffffffffffffffffffffffffffffff16815260200190815260200160002060006101000a81548160ff0219169083151502179055506001600281905550600160038190555060016004819055506000600681905550613d64806101aa6000396000f3fe608060405260043610610128576000357c0100000000000000000000000000000000000000000000000000000000900463ffffffff16806301c871e91461012d5780630513d50b1461018c57806324d7806c1461037c578063365b98b2146103e557806345004310146104d35780636a8b8b45146105a657806370480275146105ff578063715018a6146106685780637436dc251461067f57806379b1a37f146106aa578063898158e8146108f95780638da5cb5b1461094c5780638f32d59b146109a3578063af432e12146109d2578063bb1e8bec14610a0b578063c3763ff414610a36578063c3b59d0014610b43578063d32ad45114610c46578063dbb7eed114610c9f578063e0acbf0414610e43578063ebb9454c14610e92578063f2fde38b14610ebd575b600080fd5b34801561013957600080fd5b506101726004803603604081101561015057600080fd5b8101908080359060200190929190803515159060200190929190505050610f0e565b604051808215151515815260200191505060405180910390f35b34801561019857600080fd5b506101a1611663565b604051808981526020018060200180602001806020018881526020018781526020018681526020018060200185810385528c818151815260200191508051906020019080838360005b838110156102055780820151818401526020810190506101ea565b50505050905090810190601f1680156102325780820380516001836020036101000a031916815260200191505b5085810384528b818151815260200191508051906020019080838360005b8381101561026b578082015181840152602081019050610250565b50505050905090810190601f1680156102985780820380516001836020036101000a031916815260200191505b5085810383528a818151815260200191508051906020019080838360005b838110156102d15780820151818401526020810190506102b6565b50505050905090810190601f1680156102fe5780820380516001836020036101000a031916815260200191505b50858103825286818151815260200191508051906020019080838360005b8381101561033757808201518184015260208101905061031c565b50505050905090810190601f1680156103645780820380516001836020036101000a031916815260200191505b509c5050505050505050505050505060405180910390f35b34801561038857600080fd5b506103cb6004803603602081101561039f57600080fd5b81019080803573ffffffffffffffffffffffffffffffffffffffff169060200190929190505050611bee565b604051808215151515815260200191505060405180910390f35b3480156103f157600080fd5b5061041e6004803603602081101561040857600080fd5b8101908080359060200190929190505050611ce6565b60405180806020018481526020018373ffffffffffffffffffffffffffffffffffffffff1673ffffffffffffffffffffffffffffffffffffffff168152602001828103825285818151815260200191508051906020019080838360005b8381101561049657808201518184015260208101905061047b565b50505050905090810190601f1680156104c35780820380516001836020036101000a031916815260200191505b5094505050505060405180910390f35b61058c600480360360208110156104e957600080fd5b810190808035906020019064010000000081111561050657600080fd5b82018360208201111561051857600080fd5b8035906020019184600183028401116401000000008311171561053a57600080fd5b91908080601f016020809104026020016040519081016040528093929190818152602001838380828437600081840152601f19601f820116905080830192505050505050509192919290505050611dc8565b604051808215151515815260200191505060405180910390f35b3480156105b257600080fd5b506105e9600480360360408110156105c957600080fd5b810190808035906020019092919080359060200190929190505050612079565b6040518082815260200191505060405180910390f35b34801561060b57600080fd5b5061064e6004803603602081101561062257600080fd5b81019080803573ffffffffffffffffffffffffffffffffffffffff1690602001909291905050506120a9565b604051808215151515815260200191505060405180910390f35b34801561067457600080fd5b5061067d612211565b005b34801561068b57600080fd5b50610694612372565b6040518082815260200191505060405180910390f35b3480156106b657600080fd5b506108df600480360360e08110156106cd57600080fd5b81019080803573ffffffffffffffffffffffffffffffffffffffff1690602001909291908035906020019064010000000081111561070a57600080fd5b82018360208201111561071c57600080fd5b8035906020019184600183028401116401000000008311171561073e57600080fd5b91908080601f016020809104026020016040519081016040528093929190818152602001838380828437600081840152601f19601f820116905080830192505050505050509192919290803590602001906401000000008111156107a157600080fd5b8201836020820111156107b357600080fd5b803590602001918460018302840111640100000000831117156107d557600080fd5b91908080601f016020809104026020016040519081016040528093929190818152602001838380828437600081840152601f19601f8201169050808301925050505050505091929192908035906020019092919080359060200190929190803560ff1690602001909291908035906020019064010000000081111561085957600080fd5b82018360208201111561086b57600080fd5b8035906020019184600183028401116401000000008311171561088d57600080fd5b91908080601f016020809104026020016040519081016040528093929190818152602001838380828437600081840152601f19601f820116905080830192505050505050509192919290505050612592565b604051808215151515815260200191505060405180910390f35b34801561090557600080fd5b506109326004803603602081101561091c57600080fd5b8101908080359060200190929190505050612a3d565b604051808215151515815260200191505060405180910390f35b34801561095857600080fd5b50610961612b28565b604051808273ffffffffffffffffffffffffffffffffffffffff1673ffffffffffffffffffffffffffffffffffffffff16815260200191505060405180910390f35b3480156109af57600080fd5b506109b8612b51565b604051808215151515815260200191505060405180910390f35b3480156109de57600080fd5b506109e7612ba8565b60405180848152602001838152602001828152602001935050505060405180910390f35b348015610a1757600080fd5b50610a20612cff565b6040518082815260200191505060405180910390f35b348015610a4257600080fd5b50610b2960048036036060811015610a5957600080fd5b8101908080359060200190640100000000811115610a7657600080fd5b820183602082011115610a8857600080fd5b80359060200191846001830284011164010000000083111715610aaa57600080fd5b91908080601f016020809104026020016040519081016040528093929190818152602001838380828437600081840152601f19601f820116905080830192505050505050509192919290803573ffffffffffffffffffffffffffffffffffffffff169060200190929190803560ff169060200190929190505050612d05565b604051808215151515815260200191505060405180910390f35b348015610b4f57600080fd5b50610b7c60048036036020811015610b6657600080fd5b8101908080359060200190929190505050612fd5565b6040518080602001858152602001846002811115610b9657fe5b60ff1681526020018373ffffffffffffffffffffffffffffffffffffffff1673ffffffffffffffffffffffffffffffffffffffff168152602001828103825286818151815260200191508051906020019080838360005b83811015610c08578082015181840152602081019050610bed565b50505050905090810190601f168015610c355780820380516001836020036101000a031916815260200191505b509550505050505060405180910390f35b348015610c5257600080fd5b50610c8960048036036040811015610c6957600080fd5b8101908080359060200190929190803590602001909291905050506130ca565b6040518082815260200191505060405180910390f35b348015610cab57600080fd5b50610ce260048036036040811015610cc257600080fd5b8101908080359060200190929190803590602001909291905050506130fa565b60405180868152602001806020018060200180602001858152602001848103845288818151815260200191508051906020019080838360005b83811015610d36578082015181840152602081019050610d1b565b50505050905090810190601f168015610d635780820380516001836020036101000a031916815260200191505b50848103835287818151815260200191508051906020019080838360005b83811015610d9c578082015181840152602081019050610d81565b50505050905090810190601f168015610dc95780820380516001836020036101000a031916815260200191505b50848103825286818151815260200191508051906020019080838360005b83811015610e02578082015181840152602081019050610de7565b50505050905090810190601f168015610e2f5780820380516001836020036101000a031916815260200191505b509850505050505050505060405180910390f35b348015610e4f57600080fd5b50610e7c60048036036020811015610e6657600080fd5b8101908080359060200190929190505050613604565b6040518082815260200191505060405180910390f35b348015610e9e57600080fd5b50610ea761381f565b6040518082815260200191505060405180910390f35b348015610ec957600080fd5b50610f0c60048036036020811015610ee057600080fd5b81019080803573ffffffffffffffffffffffffffffffffffffffff16906020019092919050505061392e565b005b6000600f600084815260200190815260200160002054600860003373ffffffffffffffffffffffffffffffffffffffff1673ffffffffffffffffffffffffffffffffffffffff1681526020019081526020016000205481141515611000576040517f08c379a00000000000000000000000000000000000000000000000000000000081526004018080602001828103825260228152602001807f5468697320656e747279206973206e6f742061737369676e656420746f20796f81526020017f752e00000000000000000000000000000000000000000000000000000000000081525060400191505060405180910390fd5b336000600e6000600860008573ffffffffffffffffffffffffffffffffffffffff1673ffffffffffffffffffffffffffffffffffffffff1681526020019081526020016000205481526020019081526020016000208054905090506000811115156110f9576040517f08c379a00000000000000000000000000000000000000000000000000000000081526004018080602001828103825260238152602001807f546865726520617265206e6f20656e747269657320696e20796f75722071756581526020017f75652e000000000000000000000000000000000000000000000000000000000081525060400191505060405180910390fd5b85600e6000600860003373ffffffffffffffffffffffffffffffffffffffff1673ffffffffffffffffffffffffffffffffffffffff168152602001908152602001600020548152602001908152602001600020600081548110151561115a57fe5b906000526020600020015481141515611201576040517f08c379a000000000000000000000000000000000000000000000000000000000815260040180806020018281038252602d8152602001807f5468697320656e747279206973206e6f7420746865206e657874206f6e65206981526020017f6e20796f75722071756575652e0000000000000000000000000000000000000081525060400191505060405180910390fd5b6000600e6000600860003373ffffffffffffffffffffffffffffffffffffffff1673ffffffffffffffffffffffffffffffffffffffff168152602001908152602001600020548152602001908152602001600020600081548110151561126357fe5b906000526020600020015490506000600e6000600860003373ffffffffffffffffffffffffffffffffffffffff1673ffffffffffffffffffffffffffffffffffffffff16815260200190815260200160002054815260200190815260200160002080549050905060008090505b600182038110156113c257600e6000600860003373ffffffffffffffffffffffffffffffffffffffff1673ffffffffffffffffffffffffffffffffffffffff1681526020019081526020016000205481526020019081526020016000206001820181548110151561133d57fe5b9060005260206000200154600e6000600860003373ffffffffffffffffffffffffffffffffffffffff1673ffffffffffffffffffffffffffffffffffffffff168152602001908152602001600020548152602001908152602001600020828154811015156113a757fe5b906000526020600020018190555080806001019150506112d0565b50600e6000600860003373ffffffffffffffffffffffffffffffffffffffff1673ffffffffffffffffffffffffffffffffffffffff1681526020019081526020016000205481526020019081526020016000206001820381548110151561142557fe5b9060005260206000200160009055600e6000600860003373ffffffffffffffffffffffffffffffffffffffff1673ffffffffffffffffffffffffffffffffffffffff1681526020019081526020016000205481526020019081526020016000208054809190600190036114989190613c67565b506001151588151514156115d45760016012600084815260200190815260200160002060000160146101000a81548160ff021916908315150217905550600d6000600860003373ffffffffffffffffffffffffffffffffffffffff1673ffffffffffffffffffffffffffffffffffffffff1681526020019081526020016000205481526020019081526020016000208290806001815401808255809150509060018203906000526020600020016000909192909190915055507f203c05d0adb13ba1dc0333e0f63d5e03a63397105465154d650bab4ad919725e89600860003373ffffffffffffffffffffffffffffffffffffffff1673ffffffffffffffffffffffffffffffffffffffff16815260200190815260200160002054604051808381526020018281526020019250505060405180910390a1611653565b7fcdb571aec13530be3eed733414e6c0bff296b99e6a1a9891c3c868783e78c22489600860003373ffffffffffffffffffffffffffffffffffffffff1673ffffffffffffffffffffffffffffffffffffffff16815260200190815260200160002054604051808381526020018281526020019250505060405180910390a15b6001965050505050505092915050565b600060608060606000806000606060011515600760003373ffffffffffffffffffffffffffffffffffffffff1673ffffffffffffffffffffffffffffffffffffffff16815260200190815260200160002060009054906101000a900460ff161515141515611739576040517f08c379a00000000000000000000000000000000000000000000000000000000081526004018080602001828103825260118152602001807f4e6f7420612076616c696420557365722e00000000000000000000000000000081525060200191505060405180910390fd5b336000600e6000600860008573ffffffffffffffffffffffffffffffffffffffff1673ffffffffffffffffffffffffffffffffffffffff168152602001908152602001600020548152602001908152602001600020805490509050600081111515611832576040517f08c379a00000000000000000000000000000000000000000000000000000000081526004018080602001828103825260238152602001807f546865726520617265206e6f20656e747269657320696e20796f75722071756581526020017f75652e000000000000000000000000000000000000000000000000000000000081525060400191505060405180910390fd5b6000600e6000600860003373ffffffffffffffffffffffffffffffffffffffff1673ffffffffffffffffffffffffffffffffffffffff168152602001908152602001600020548152602001908152602001600020600081548110151561189457fe5b90600052602060002001549050809a50601260008281526020019081526020016000206001018054600181600116156101000203166002900480601f01602080910402602001604051908101604052809291908181526020018280546001816001161561010002031660029004801561194e5780601f106119235761010080835404028352916020019161194e565b820191906000526020600020905b81548152906001019060200180831161193157829003601f168201915b50505050509950601260008281526020019081526020016000206002018054600181600116156101000203166002900480601f0160208091040260200160405190810160405280929190818152602001828054600181600116156101000203166002900480156119ff5780601f106119d4576101008083540402835291602001916119ff565b820191906000526020600020905b8154815290600101906020018083116119e257829003601f168201915b50505050509850600c6000601260008481526020019081526020016000206003015481526020019081526020016000206000018054600181600116156101000203166002900480601f016020809104026020016040519081016040528092919081815260200182805460018160011615610100020316600290048015611ac65780601f10611a9b57610100808354040283529160200191611ac6565b820191906000526020600020905b815481529060010190602001808311611aa957829003601f168201915b50505050509750601260008281526020019081526020016000206004015496506012600082815260200190815260200160002060050154955060126000828152602001908152602001600020600601549450601260008281526020019081526020016000206008018054600181600116156101000203166002900480601f016020809104026020016040519081016040528092919081815260200182805460018160011615610100020316600290048015611bc25780601f10611b9757610100808354040283529160200191611bc2565b820191906000526020600020905b815481529060010190602001808311611ba557829003601f168201915b505050505093508a8a8a8a8a8a8a8a9a509a509a509a509a509a509a509a505050509091929394959697565b6000611bf8612b51565b1515611c92576040517f08c379a00000000000000000000000000000000000000000000000000000000081526004018080602001828103825260288152602001807f5468697320616374696f6e2069732070726f6869626974656420666f72206e6f81526020017f6e204f776e65722e00000000000000000000000000000000000000000000000081525060400191505060405180910390fd5b600560008373ffffffffffffffffffffffffffffffffffffffff1673ffffffffffffffffffffffffffffffffffffffff16815260200190815260200160002060009054906101000a900460ff169050919050565b6009602052806000526040600020600091509050806000018054600181600116156101000203166002900480601f016020809104026020016040519081016040528092919081815260200182805460018160011615610100020316600290048015611d925780601f10611d6757610100808354040283529160200191611d92565b820191906000526020600020905b815481529060010190602001808311611d7557829003601f168201915b5050505050908060010154908060020160009054906101000a900473ffffffffffffffffffffffffffffffffffffffff16905083565b60006006543410151515611e6a576040517f08c379a00000000000000000000000000000000000000000000000000000000081526004018080602001828103825260258152602001807f4e6f74207061696420656e6f75676820746f207369676e20757020617320612081526020017f757365722e00000000000000000000000000000000000000000000000000000081525060400191505060405180910390fd5b6060604051908101604052808381526020014281526020013373ffffffffffffffffffffffffffffffffffffffff168152506009600060025481526020019081526020016000206000820151816000019080519060200190611ecd929190613c93565b506020820151816001015560408201518160020160006101000a81548173ffffffffffffffffffffffffffffffffffffffff021916908373ffffffffffffffffffffffffffffffffffffffff160217905550905050600254600860003373ffffffffffffffffffffffffffffffffffffffff1673ffffffffffffffffffffffffffffffffffffffff168152602001908152602001600020819055506001600760003373ffffffffffffffffffffffffffffffffffffffff1673ffffffffffffffffffffffffffffffffffffffff16815260200190815260200160002060006101000a81548160ff0219169083151502179055507f4747bdfb8404ad43e6414fbb1376256333e3bcbb6a52700aaa6463651c7828b26002546040518082815260200191505060405180910390a1600160025401600281905550600190506000612020600654346139dc90919063ffffffff16565b90506000811115612073573373ffffffffffffffffffffffffffffffffffffffff166108fc829081150290604051600060405180830381858888f19350505050158015612071573d6000803e3d6000fd5b505b50919050565b600e6020528160005260406000208181548110151561209457fe5b90600052602060002001600091509150505481565b60006120b3612b51565b151561214d576040517f08c379a00000000000000000000000000000000000000000000000000000000081526004018080602001828103825260288152602001807f5468697320616374696f6e2069732070726f6869626974656420666f72206e6f81526020017f6e204f776e65722e00000000000000000000000000000000000000000000000081525060400191505060405180910390fd5b6001600560008473ffffffffffffffffffffffffffffffffffffffff1673ffffffffffffffffffffffffffffffffffffffff16815260200190815260200160002060006101000a81548160ff0219169083151502179055507f7849194239ab1d31b991b5436d81370256505cf25eaafbcccbc66acd1189691682604051808273ffffffffffffffffffffffffffffffffffffffff1673ffffffffffffffffffffffffffffffffffffffff16815260200191505060405180910390a160019050919050565b612219612b51565b15156122b3576040517f08c379a00000000000000000000000000000000000000000000000000000000081526004018080602001828103825260288152602001807f5468697320616374696f6e2069732070726f6869626974656420666f72206e6f81526020017f6e204f776e65722e00000000000000000000000000000000000000000000000081525060400191505060405180910390fd5b600073ffffffffffffffffffffffffffffffffffffffff166000809054906101000a900473ffffffffffffffffffffffffffffffffffffffff1673ffffffffffffffffffffffffffffffffffffffff167f8be0079c531659141344cd1fd0a4f28419497f9722a3daafe3b4186f6b6457e060405160405180910390a360008060006101000a81548173ffffffffffffffffffffffffffffffffffffffff021916908373ffffffffffffffffffffffffffffffffffffffff160217905550565b600060011515600760003373ffffffffffffffffffffffffffffffffffffffff1673ffffffffffffffffffffffffffffffffffffffff16815260200190815260200160002060009054906101000a900460ff16151514151561243c576040517f08c379a00000000000000000000000000000000000000000000000000000000081526004018080602001828103825260118152602001807f4e6f7420612076616c696420557365722e00000000000000000000000000000081525060200191505060405180910390fd5b336000600e6000600860008573ffffffffffffffffffffffffffffffffffffffff1673ffffffffffffffffffffffffffffffffffffffff168152602001908152602001600020548152602001908152602001600020805490509050600081111515612535576040517f08c379a00000000000000000000000000000000000000000000000000000000081526004018080602001828103825260238152602001807f546865726520617265206e6f20656e747269657320696e20796f75722071756581526020017f75652e000000000000000000000000000000000000000000000000000000000081525060400191505060405180910390fd5b600e6000600860003373ffffffffffffffffffffffffffffffffffffffff1673ffffffffffffffffffffffffffffffffffffffff168152602001908152602001600020548152602001908152602001600020805490509250505090565b600060011515600a60003373ffffffffffffffffffffffffffffffffffffffff1673ffffffffffffffffffffffffffffffffffffffff16815260200190815260200160002060009054906101000a900460ff16151514151561265c576040517f08c379a00000000000000000000000000000000000000000000000000000000081526004018080602001828103825260188152602001807f4e6f7420612076616c696420496e737469747574696f6e2e000000000000000081525060200191505060405180910390fd5b8760011515600760008373ffffffffffffffffffffffffffffffffffffffff1673ffffffffffffffffffffffffffffffffffffffff16815260200190815260200160002060009054906101000a900460ff161515141515612725576040517f08c379a000000000000000000000000000000000000000000000000000000000815260040180806020018281038252601e8152602001807f43616e6e6f742061646420656e74727920746f207468697320757365722e000081525060200191505060405180910390fd5b60008090506000600b60003373ffffffffffffffffffffffffffffffffffffffff1673ffffffffffffffffffffffffffffffffffffffff1681526020019081526020016000205490506000429050610140604051908101604052808d73ffffffffffffffffffffffffffffffffffffffff16815260200184151581526020018c81526020018b81526020018381526020018281526020018a81526020018981526020018860018111156127d457fe5b81526020018781525060126000600454815260200190815260200160002060008201518160000160006101000a81548173ffffffffffffffffffffffffffffffffffffffff021916908373ffffffffffffffffffffffffffffffffffffffff16021790555060208201518160000160146101000a81548160ff0219169083151502179055506040820151816001019080519060200190612875929190613c93565b506060820151816002019080519060200190612892929190613c93565b506080820151816003015560a0820151816004015560c0820151816005015560e082015181600601556101008201518160070160006101000a81548160ff021916908360018111156128e057fe5b0217905550610120820151816008019080519060200190612902929190613c93565b509050507f2911103f2b828776197685f9c4c17938f9c3d58e3dbcb6ec42f7a4e5523f05606004546040518082815260200191505060405180910390a16000600860008e73ffffffffffffffffffffffffffffffffffffffff1673ffffffffffffffffffffffffffffffffffffffff168152602001908152602001600020549050600e6000828152602001908152602001600020600454908060018154018082558091505090600182039060005260206000200160009091929091909150555080600f60006004548152602001908152602001600020819055507ff0b4a128dcd4b065fbbc439cf7a6240594dd43de84645b9d77f49409ce47b93960045482604051808381526020018281526020019250505060405180910390a1600160045401600481905550600195505050505050979650505050505050565b6000612a47612b51565b1515612ae1576040517f08c379a00000000000000000000000000000000000000000000000000000000081526004018080602001828103825260288152602001807f5468697320616374696f6e2069732070726f6869626974656420666f72206e6f81526020017f6e204f776e65722e00000000000000000000000000000000000000000000000081525060400191505060405180910390fd5b816006819055507f86119a802f33a1f9c2aaff7546bd06a623edbac925804b89ee6d4bc11f82fc32826040518082815260200191505060405180910390a160019050919050565b60008060009054906101000a900473ffffffffffffffffffffffffffffffffffffffff16905090565b60008060009054906101000a900473ffffffffffffffffffffffffffffffffffffffff1673ffffffffffffffffffffffffffffffffffffffff163373ffffffffffffffffffffffffffffffffffffffff1614905090565b600080600060011515600760003373ffffffffffffffffffffffffffffffffffffffff1673ffffffffffffffffffffffffffffffffffffffff16815260200190815260200160002060009054906101000a900460ff161515141515612c75576040517f08c379a00000000000000000000000000000000000000000000000000000000081526004018080602001828103825260118152602001807f4e6f7420612076616c696420557365722e00000000000000000000000000000081525060200191505060405180910390fd5b600060096000600860003373ffffffffffffffffffffffffffffffffffffffff1673ffffffffffffffffffffffffffffffffffffffff168152602001908152602001600020548152602001908152602001600020600101549050612cd8816139fe565b9350612ce381613a2d565b9250612cee81613a5c565b915083838393509350935050909192565b60065481565b600060011515600560003373ffffffffffffffffffffffffffffffffffffffff1673ffffffffffffffffffffffffffffffffffffffff16815260200190815260200160002060009054906101000a900460ff161515141515612df5576040517f08c379a00000000000000000000000000000000000000000000000000000000081526004018080602001828103825260298152602001807f5468697320616374696f6e2069732070726f6869626974656420666f72206e6f81526020017f6e2041646d696e732e000000000000000000000000000000000000000000000081525060400191505060405180910390fd5b600354600b60008573ffffffffffffffffffffffffffffffffffffffff1673ffffffffffffffffffffffffffffffffffffffff16815260200190815260200160002081905550608060405190810160405280858152602001428152602001836002811115612e5f57fe5b81526020018473ffffffffffffffffffffffffffffffffffffffff16815250600c600060035481526020019081526020016000206000820151816000019080519060200190612eaf929190613c93565b506020820151816001015560408201518160020160006101000a81548160ff02191690836002811115612ede57fe5b021790555060608201518160020160016101000a81548173ffffffffffffffffffffffffffffffffffffffff021916908373ffffffffffffffffffffffffffffffffffffffff1602179055509050506001600a60008573ffffffffffffffffffffffffffffffffffffffff1673ffffffffffffffffffffffffffffffffffffffff16815260200190815260200160002060006101000a81548160ff0219169083151502179055507f97894fc9a87999c66824c2d0e76ee026b2cbc04042167dfa0a4669620565f8c76003546040518082815260200191505060405180910390a1600160035401600381905550600190509392505050565b600c602052806000526040600020600091509050806000018054600181600116156101000203166002900480601f0160208091040260200160405190810160405280929190818152602001828054600181600116156101000203166002900480156130815780601f1061305657610100808354040283529160200191613081565b820191906000526020600020905b81548152906001019060200180831161306457829003601f168201915b5050505050908060010154908060020160009054906101000a900460ff16908060020160019054906101000a900473ffffffffffffffffffffffffffffffffffffffff16905084565b600d602052816000526040600020818154811015156130e557fe5b90600052602060002001600091509150505481565b6000606080606060008660011515600760006009600085815260200190815260200160002060020160009054906101000a900473ffffffffffffffffffffffffffffffffffffffff1673ffffffffffffffffffffffffffffffffffffffff1673ffffffffffffffffffffffffffffffffffffffff16815260200190815260200160002060009054906101000a900460ff161515141515613202576040517f08c379a000000000000000000000000000000000000000000000000000000000815260040180806020018281038252601c8152602001807f54686973204944206973206e6f7420612076616c696420757365722e0000000081525060200191505060405180910390fd5b876000600d60008381526020019081526020016000208054905090506000811115156132bc576040517f08c379a000000000000000000000000000000000000000000000000000000000815260040180806020018281038252602b8152602001807f546865726520617265206e6f20656e747269657320696e20746869732075736581526020017f72277320726573756d652e00000000000000000000000000000000000000000081525060400191505060405180910390fd5b89896000600d60008481526020019081526020016000208054905090508082101515613376576040517f08c379a00000000000000000000000000000000000000000000000000000000081526004018080602001828103825260308152602001807f5468697320656e74727920656c656d656e7420646f6573206e6f74206578697381526020017f7420666f72207468697320757365722e0000000000000000000000000000000081525060400191505060405180910390fd5b600d60008e81526020019081526020016000208c81548110151561339657fe5b90600052602060002001549a50601260008c81526020019081526020016000206001018054600181600116156101000203166002900480601f01602080910402602001604051908101604052809291908181526020018280546001816001161561010002031660029004801561344d5780601f106134225761010080835404028352916020019161344d565b820191906000526020600020905b81548152906001019060200180831161343057829003601f168201915b50505050509950601260008c81526020019081526020016000206002018054600181600116156101000203166002900480601f0160208091040260200160405190810160405280929190818152602001828054600181600116156101000203166002900480156134fe5780601f106134d3576101008083540402835291602001916134fe565b820191906000526020600020905b8154815290600101906020018083116134e157829003601f168201915b50505050509850600c6000601260008e81526020019081526020016000206003015481526020019081526020016000206000018054600181600116156101000203166002900480601f0160208091040260200160405190810160405280929190818152602001828054600181600116156101000203166002900480156135c55780601f1061359a576101008083540402835291602001916135c5565b820191906000526020600020905b8154815290600101906020018083116135a857829003601f168201915b50505050509750601260008c81526020019081526020016000206004015496508a8a8a8a8a9a509a509a509a509a505050505050509295509295909350565b60008160011515600760006009600085815260200190815260200160002060020160009054906101000a900473ffffffffffffffffffffffffffffffffffffffff1673ffffffffffffffffffffffffffffffffffffffff1673ffffffffffffffffffffffffffffffffffffffff16815260200190815260200160002060009054906101000a900460ff161515141515613705576040517f08c379a000000000000000000000000000000000000000000000000000000000815260040180806020018281038252601c8152602001807f54686973204944206973206e6f7420612076616c696420757365722e0000000081525060200191505060405180910390fd5b826000600d60008381526020019081526020016000208054905090506000811115156137bf576040517f08c379a000000000000000000000000000000000000000000000000000000000815260040180806020018281038252602b8152602001807f546865726520617265206e6f20656e747269657320696e20746869732075736581526020017f72277320726573756d652e00000000000000000000000000000000000000000081525060400191505060405180910390fd5b600d6000600860003373ffffffffffffffffffffffffffffffffffffffff1673ffffffffffffffffffffffffffffffffffffffff168152602001908152602001600020548152602001908152602001600020805490509350505050919050565b600060011515600760003373ffffffffffffffffffffffffffffffffffffffff1673ffffffffffffffffffffffffffffffffffffffff16815260200190815260200160002060009054906101000a900460ff1615151415156138e9576040517f08c379a00000000000000000000000000000000000000000000000000000000081526004018080602001828103825260118152602001807f4e6f7420612076616c696420557365722e00000000000000000000000000000081525060200191505060405180910390fd5b600860003373ffffffffffffffffffffffffffffffffffffffff1673ffffffffffffffffffffffffffffffffffffffff16815260200190815260200160002054905090565b613936612b51565b15156139d0576040517f08c379a00000000000000000000000000000000000000000000000000000000081526004018080602001828103825260288152602001807f5468697320616374696f6e2069732070726f6869626974656420666f72206e6f81526020017f6e204f776e65722e00000000000000000000000000000000000000000000000081525060400191505060405180910390fd5b6139d981613a8b565b50565b60008282111515156139ed57600080fd5b600082840390508091505092915050565b6000806000613a1a6201518085811515613a1457fe5b04613b85565b8093508194508295505050505050919050565b6000806000613a496201518085811515613a4357fe5b04613b85565b8093508195508294505050505050919050565b6000806000613a786201518085811515613a7257fe5b04613b85565b8095508193508294505050505050919050565b600073ffffffffffffffffffffffffffffffffffffffff168173ffffffffffffffffffffffffffffffffffffffff1614151515613ac757600080fd5b8073ffffffffffffffffffffffffffffffffffffffff166000809054906101000a900473ffffffffffffffffffffffffffffffffffffffff1673ffffffffffffffffffffffffffffffffffffffff167f8be0079c531659141344cd1fd0a4f28419497f9722a3daafe3b4186f6b6457e060405160405180910390a3806000806101000a81548173ffffffffffffffffffffffffffffffffffffffff021916908373ffffffffffffffffffffffffffffffffffffffff16021790555050565b600080600080849050600062253d8c62010bd98301019050600062023ab182600402811515613bb057fe5b059050600460038262023ab10201811515613bc757fe5b0582039150600062164b0960018401610fa002811515613be357fe5b059050601f6004826105b502811515613bf857fe5b058403019250600061098f84605002811515613c1057fe5b059050600060508261098f02811515613c2557fe5b0585039050600b82811515613c3657fe5b05945084600c0260028301039150848360318603606402010192508298508197508096505050505050509193909250565b815481835581811115613c8e57818360005260206000209182019101613c8d9190613d13565b5b505050565b828054600181600116156101000203166002900490600052602060002090601f016020900481019282601f10613cd457805160ff1916838001178555613d02565b82800160010185558215613d02579182015b82811115613d01578251825591602001919060010190613ce6565b5b509050613d0f9190613d13565b5090565b613d3591905b80821115613d31576000816000905550600101613d19565b5090565b9056fea165627a7a723058205178af08c2072fb66b9a9bcfbbcea85b859b69ba1274f2de6ac917984ed525a90029",
  "source": "pragma solidity ^0.5.0;\n\nimport \"./Ownable.sol\";\nimport \"./BokkyPooBahsDateTimeLibrary.sol\";\nimport \"./SafeMath.sol\";\n\ncontract Resume is Ownable {\n\n    // The following libraries were found here https://github.com/ConsenSys/ethereum-developer-tools-list\n    // Specify that this contract uses SafeMath library for operations involving uint\n    using SafeMath for uint;\n  \n    // Specify that this contract uses BokkyPooBahsDateTimeLibrary for operations involving uint\n    using BokkyPooBahsDateTimeLibrary for uint;\n  \n    // ////////////////////////////////////////////////////////////// //\n    // /////////////////////// DECLARATIONS ////////////////////////// //\n    // ////////////////////////////////////////////////////////////// //\n\n    /* set owner */\n    address private _owner;\n\n    /* keep track of the users, institutions, and entries */\n    uint private UserCount;\n    uint private InstitutionCount;\n    uint private EntryCount;\n\n    /* keep a list of Admins that can add universities, users, entries */\n    \n    mapping(address => bool) private admins;\n\n    // ///////////////////////     USERS    ////////////////////////// //\n\n    /* when users sign up to be on the platform, they have to pay a set fee */\n    \n    uint public user_signup_fee;\n    \n    /* keep a list of valid users */\n    \n    mapping(address => bool) userList;\n    \n    /* Creating a public mapping that maps the user address to the user ID. */\n      \n    mapping (address => uint) userIDMaps;\n    \n    /* Creating a public mapping that maps the UserID (a number) to a User. */\n      \n    mapping (uint => User) public users;\n\n    /* Creating a struct named User. \n    Can expand more details about the User in the future- \n    address, age, etc\n    */\n    \n    struct User {\n        string name;\n        uint date_joined;\n        address userAddr;\n    }\n\n    // ////////////////////////////////////////////////////////////// //\n\n\n    // /////////////////////// INSTITUTIONS ////////////////////////// //\n\n    /* keep a list of valid institutions */\n    \n    mapping(address => bool) institutionList;\n    \n    /* Creating a public mapping that maps the institution address to the institution ID. */\n      \n    mapping (address => uint) institutionIDMaps;\n    \n    /* Creating a public mapping that maps the InstitutionID (a number) to an Instituion. */\n      \n    mapping (uint => Institution) public institutions;\n\n    /* Creating an enum called institutionType for types of institutions */\n    \n    enum institutionType {University, School, Certificator}\n\n    /* Creating a struct named Institution. \n    Can expand more details about the Institution in the future- \n    address, year of inception, etc\n    */\n    \n    struct Institution {\n        string name;\n        uint date_joined;\n        institutionType itype;\n        address institutionAddr;\n    }\n\n    // ////////////////////////////////////////////////////////////// //\n    \n\n    // /////////////////////// RESUMES ////////////////////////// //\n\n    /* Creating a public mapping that maps the UserID (a number) to a resume.\n    Each user is mapped to one resume, and joined using UserID\n    There is also a resume_queue for each user of entries that have yet to\n    be approved by the user. \n    */\n      \n    mapping (uint => uint[]) public resumes;\n    mapping (uint => uint[]) public resume_queues;\n    \n    /* This maps user id to entry id in a user queue so we can check if an entry\n    exists in a user queue*/\n    mapping (uint => uint) private queueMaps;\n\n    /* Each resume and resume queue is an array of unique entryids that string \n    together resumes filled with entries\n    */\n\n    uint[] the_resume;\n    uint[] resume_queue;\n\n    // ////////////////////////////////////////////////////////////// //\n\n    \n    // /////////////////////// ENTRIES ////////////////////////// //\n    \n    /* Creating a mapping that maps the EntryID (a number) to an entry.\n    Each resume is an array of entries\n    */\n    \n    mapping (uint => Entry) entries;\n    \n    /* Creating a struct named Entry. \n    These are individual entries in the resume- there are two types of entries accounting for\n    1. receiving a degree from a University or School\n    2. receiving a certification from a Certificator\n    */\n    \n    enum entryType {Degree, Certificate}\n    \n    /* struct of the entry containing info about the individual entry\n    - recipient- the user who is receiving the entry\n    - approved- boolean True/False for if the review is approved by receiver to prevent\n    malicious reviews to be added to someone's transcript. Default to False until user goes to \n    approve it and it will be added to their resume. \n    - entry_title- title of the degree or certificate earned eg. B.S. bachelor of science\n    - degree_descr- description of the entry such as the major for a degree, or specialization of a certificate\n    - institutionID- the id of the institution issuing the entry\n    - date_received- date that the entry was issued\n    - start_date- when the degree or certificate is valid\n    - end_date- when the degree or certificate is not valid\n    - review- gives a review of the user- can be a recommendation, etc\n\n    */\n    struct Entry {\n        address recipient;\n        bool approved;\n        string entry_title;\n        string degree_descr;\n        uint institutionID;\n        uint date_received;\n        uint start_date;\n        uint end_date;\n        entryType etype;\n        string review;\n    }\n\n    // ////////////////////////////////////////////////////////////// //\n    \n\n    // ////////////////////////////////////////////////////////////// //\n    // /////////////////////// END OF DECLARATIONS ////////////////////////// //\n    // ////////////////////////////////////////////////////////////// //\n    \n    \n    \n    // ////////////////////////////////////////////////////////////// //\n    // /////////////////////// EVENTS ////////////////////////// //\n    // ////////////////////////////////////////////////////////////// //\n\n    /* Create events*/\n\n    event AddedAdmin(address adminAddr);\n    event SignUpFeeSet(uint fee);\n    event SetPrice(uint price);\n    event AddedInstitution(uint UniversityID);\n    event AddedUser(uint UserID);\n    event EntryCreated(uint EntryID);\n    event AddedtoQueue(uint EntryID, uint UserID);\n    event AddedtoResume(uint EntryID, uint UserID);\n    event EntryRejected(uint EntryID, uint UserID);\n\n    // ////////////////////////////////////////////////////////////// //\n    // /////////////////////// END OF EVENTS ////////////////////////// //\n    // ////////////////////////////////////////////////////////////// //\n\n\n    // ////////////////////////////////////////////////////////////// //\n    // /////////////////////// MODIFIERS ////////////////////////// //\n    // ////////////////////////////////////////////////////////////// //\n\n      // Do not forget the \"_;\"! It will\n      // be replaced by the actual function\n      // body when the modifier is used.\n    \n    /* This check to see if caller is the owner. Inherited from ownable contract*/\n    modifier onlyOwner() {\n        require(isOwner(), \"This action is prohibited for non Owner.\");\n        _;\n    }\n\n    /* a set of modifiers to check if an address is a valid admin, user, or institution*/\n    modifier verifyAdmin () \n      { \n        require (admins[msg.sender]==true, \"This action is prohibited for non Admins.\");\n        _;\n    }\n    \n    modifier verifyUser () \n      { \n        require (userList[msg.sender]==true, \"Not a valid User.\");\n        _;\n    }\n\n    modifier verifyInstitution () \n      { \n        require (institutionList[msg.sender]==true, \"Not a valid Institution.\");\n        _;\n    }\n    \n    /* A modifer that checks if the msg.sender is the the right address */\n    modifier verifyCaller (address _address) \n      { \n        require (msg.sender == _address, \"Message sender is not correct.\");\n        _;\n    }\n\n      /* A modifer that checks if the userID that you are trying to view exists */\n    modifier verifyViewUserResume (uint _UserID) \n      { \n        require (userList[users[_UserID].userAddr]==true, \"This ID is not a valid user.\");\n        _;\n    }\n\n    modifier paidEnough()\n      { \n        require(msg.value >= user_signup_fee, \"Not paid enough to sign up as a user.\"); \n        _;\n    }\n      \n    modifier checkValue() \n      {\n      //refund them after pay for item (why it is before, _ checks for logic before func)\n        _;\n        //uses the safemath library subtraction function\n        uint amountToRefund = (msg.value).sub(user_signup_fee);\n        if (amountToRefund>0)\n            msg.sender.transfer(amountToRefund);\n    }\n\n    \n    /* A modifer that checks if the address given is a valid user */\n    modifier verifyUserEntry (address _address) \n      { \n        require (userList[_address]==true, \"Cannot add entry to this user.\");\n        _;\n    }\n\n    /* A modifer that checks if queue for a user is empty */\n    modifier verifyQueueEmpty (address _address) \n      { \n        uint queue_length= resume_queues[userIDMaps[_address]].length;\n        require (queue_length>0, \"There are no entries in your queue.\");\n        _;\n    }\n\n    /* A modifer that checks if the resume for a user is empty */\n    modifier verifyResumeEmpty (uint _UserID) \n      { \n        uint _resumeLength = resumes[_UserID].length;\n        require (_resumeLength>0, \"There are no entries in this user's resume.\");\n        _;\n    }\n\n    /* A modifer that checks if the element of a resume to view is in bounds */\n    modifier verifyResumeEntryExists (uint _UserID, uint _entryElement) \n      { \n        uint _resumeLength= resumes[_UserID].length;\n        require (_entryElement<_resumeLength, \"This entry element does not exist for this user.\");\n        _;\n    }\n\n    /* A modifer that checks if the resume entry to view has been approved by the user */\n    modifier verifyApproved (uint _UserID, uint _entryElement)\n      {\n        \n        require(entries[resumes[_UserID][_entryElement]].approved==true, \"This entry has not been approved for viewing\");\n        _;\n    }\n\n    /* A modifer that checks if the user is trying to approve an entry that is assigned to them */\n    modifier verifyUserApproval (uint _UserID)\n      { \n        require (_UserID==userIDMaps[msg.sender], \"This entry is not assigned to you.\");\n        _;\n    }\n\n    /* A modifer that checks if entry is first entry in queue */\n    modifier verifyNextEntryUp (uint _EntryID)\n      { \n        require (_EntryID==resume_queues[userIDMaps[msg.sender]][0],\n            \"This entry is not the next one in your queue.\");\n        _;\n    }\n\n    // ////////////////////////////////////////////////////////////// //\n    // /////////////////////// END OF MODIFIERS ////////////////////////// //\n    // ////////////////////////////////////////////////////////////// //\n\n\n    // ////////////////////////////////////////////////////////////// //\n    // /////////////////////// FUNCTIONS ////////////////////////// //\n    // ////////////////////////////////////////////////////////////// //\n\n    /* This is the constructor\n    We are setting the owner to the one who starts this contract\n    Sets the owner as the first admin\n    UserCount, InstitutionCount, and EntryCount set to 1 since we start IDs at 1 */\n    constructor() payable public {\n      /* Set the owner as the person who instantiated the contract\n      Set the counts of Users, Institions, and Entries to 0. */\n        _owner = msg.sender;\n        admins[_owner] = true;\n        UserCount = 1;\n        InstitutionCount = 1;\n        EntryCount = 1;\n        user_signup_fee = 0;\n    }\n\n    /* This function lets the owner of the contract add admins to manage the contract */\n    function addAdmin(address admin)\n    public\n    onlyOwner()\n    returns(bool)\n    {\n        admins[admin] = true;\n        emit AddedAdmin(admin);\n        return true;\n    }\n    \n    /* This function lets the owner of the contract set the sign up fee for new users */\n    function setSignUpFee(uint _fee)\n    public\n    onlyOwner()\n    returns(bool)\n    {\n        user_signup_fee = _fee;\n        emit SignUpFeeSet(_fee);\n        return true;\n    }\n    \n    /* This function let's users sign up for this service to record their resumes */\n    function signUpUser(string memory _name)\n    public\n    payable\n    paidEnough ()\n    checkValue ()\n    returns(bool)\n    {\n        users[UserCount] = User({name: _name, date_joined: now, userAddr: msg.sender});\n        userIDMaps[msg.sender] = UserCount;\n        userList[msg.sender] = true;\n        emit AddedUser(UserCount);\n        UserCount = UserCount + 1;\n        return true;\n    }\n\n    /* This function let's admins add institutions that are legitimate, allowing them submit\n    entries for users on the platform*/\n    function addInstitution(string memory _name, address _institutionAddr, institutionType _itype) \n    public\n    verifyAdmin()\n    returns(bool)\n    {\n        institutionIDMaps[_institutionAddr] = InstitutionCount;\n        institutions[InstitutionCount] = Institution({name: _name, date_joined: now, itype: _itype, institutionAddr: _institutionAddr});\n        institutionList[_institutionAddr] = true;\n        emit AddedInstitution(InstitutionCount);\n        InstitutionCount = InstitutionCount + 1;\n        return true;\n    }\n\n    /* This function let's institutions add entries that can go on the resumes of users*/\n    function addEntry(address _recipient, string memory _entry_title, string memory _degree_descr, \n        uint _start_date, uint _end_date, entryType _etype, string memory _review) \n    public\n    verifyInstitution()\n    verifyUserEntry(_recipient)\n    returns(bool)\n    {\n      //Create the entry\n        bool _approved = false;\n        uint _institutionID = institutionIDMaps[msg.sender];\n        uint _date_received = now;\n        entries[EntryCount] = Entry({recipient: _recipient, approved: _approved,\n            entry_title: _entry_title, degree_descr: _degree_descr, institutionID: _institutionID,\n            date_received: _date_received, start_date: _start_date, end_date: _end_date,\n            etype: _etype, review: _review});\n        emit EntryCreated(EntryCount);\n\n      //Add entry to the user's resume queue and map to user\n        uint _UserID = userIDMaps[_recipient];\n        resume_queues[_UserID].push(EntryCount);\n        queueMaps[EntryCount] = _UserID;\n        emit AddedtoQueue(EntryCount, _UserID);\n\n        //Advance EntryCount and end function by returning true\n        EntryCount = EntryCount + 1;\n        return true;\n    }\n\n    /* This function let's users approve entries in their resume queue\n    Once the entry is approved, it moves from resume queue to the offical resume\n    If it rejected, then we just remove it from the queue.\n    This requires user to enter in the that the entry they are trying to edit\n    is the next entry up in their queue so they are aware which one they are approving\n    or rejecting.\n    */\n    function approveEntry(uint _entryID, bool _doYouWantToApprove)\n    public\n    verifyUserApproval(queueMaps[_entryID])\n    verifyQueueEmpty(msg.sender)\n    verifyNextEntryUp (_entryID)\n    returns(bool)\n    {\n        uint _nextEntryID = resume_queues[userIDMaps[msg.sender]][0];\n        uint _length = resume_queues[userIDMaps[msg.sender]].length;\n        /* The first element of the queue is removed\n        and we shift all other elements up one and reduce size of array by 1*/\n        for (uint i = 0; i < (_length - 1); i++) \n        {\n            resume_queues[userIDMaps[msg.sender]][i] = resume_queues[userIDMaps[msg.sender]][i+1];\n        }\n        delete resume_queues[userIDMaps[msg.sender]][_length-1];\n        resume_queues[userIDMaps[msg.sender]].length--;\n        /* Now we add the entry to the resume if it is approved */\n        if (_doYouWantToApprove==true)\n        {\n            entries[_nextEntryID].approved = true;\n            resumes[userIDMaps[msg.sender]].push(_nextEntryID);\n            emit AddedtoResume(_entryID, userIDMaps[msg.sender]);\n        }\n        else\n        {\n            emit EntryRejected(_entryID, userIDMaps[msg.sender]);\n        }\n        return true;\n    }\n\n    /* This function let's user view the first item in their queue\n    After viewing, the user should call the approveEntry function to approve or disapprove \n    and then this will remove the entry either adding it to their official resume or removing it \n    from the queue. This is the only way to view the next entry in their queue\n    No ability to return arrays yet in solidity???\n    */\n    function showMyResumeQueue()\n      public \n      view\n      verifyUser()\n      verifyQueueEmpty(msg.sender)\n      returns (uint entryID, string memory entry_title, string memory degree_descr,\n      string memory institution_name, uint date_received, uint start_date, \n      uint end_date, string memory review) \n      {\n        uint _latestID = resume_queues[userIDMaps[msg.sender]][0];\n        entryID = _latestID;\n        entry_title = entries[_latestID].entry_title;\n        degree_descr = entries[_latestID].degree_descr;\n        institution_name = institutions[entries[_latestID].institutionID].name;\n        date_received = entries[_latestID].date_received;\n        start_date = entries[_latestID].start_date;\n        end_date = entries[_latestID].end_date;\n        review = entries[_latestID].review;\n        return (entryID, entry_title, degree_descr, institution_name, date_received,\n        start_date, end_date, review);\n      }\n\n    /* This function let's an external party view a user's offical resume\n    This allows:\n    1. A user to view their own resume\n    2. A third party such as a company performing a background check to validate a resume\n    It takes in the userID of the person you want to view, and the number of element of the resume\n    to return.\n    Since there is no good way to return an array of undefined size, and on top of that\n    no good way to return an array of structs, we will allow the function caller to choose\n    which element to view of a user's resume, starting with element 0. Element 0 will be the\n    oldest entry added to a resume, while element resume.length-1 will be the newest entry. \n    It is useful to run the checkResumeSize function first to see how big the resume is \n    to choose which element to view.\n    */\n    function viewResume(uint _UserID, uint _entryElement)\n      public \n      view\n      verifyViewUserResume (_UserID)\n      verifyResumeEmpty (_UserID)\n      verifyResumeEntryExists (_UserID, _entryElement)\n      // verifyApproved(_UserID, _entryElement)\n      returns (uint entryID \n      ,string memory entry_title \n      ,string memory degree_descr\n      ,string memory institution_name \n      ,uint date_received \n      // ,uint start_date \n      // ,uint end_date \n      // ,string memory review\n      )\n    {\n        entryID = resumes[_UserID][_entryElement];\n        entry_title = entries[entryID].entry_title;\n        degree_descr = entries[entryID].degree_descr;\n        institution_name = institutions[entries[entryID].institutionID].name;\n        date_received = entries[entryID].date_received;\n      // start_date=entries[entryID].start_date;\n      // end_date=entries[entryID].end_date;\n      // review=entries[entryID].review;\n        return (\n        entryID\n        , entry_title\n        , degree_descr\n        , institution_name\n        , date_received\n        // , start_date\n        // , end_date\n        // , review\n        );\n    }\n\n    /* This function let's a user check the size of their own queue so they know \n    if they need to clear entries in their queue\n    */\n    function checkQueueSize()\n      public\n      view \n      verifyUser()\n      verifyQueueEmpty(msg.sender)\n      returns (uint _queueSize)\n    {\n        return (resume_queues[userIDMaps[msg.sender]].length);\n    }\n\n    /* This function let's someone check the size of the resume of a user\n    to see how many entries to look through to view entire resume of the user\n    This function should be used before using viewResume function\n    */\n    function checkResumeSize(uint _UserID)\n      public\n      view \n      verifyViewUserResume (_UserID)\n      verifyResumeEmpty (_UserID)\n      returns (uint _resumeSize)\n    {\n        return (resumes[userIDMaps[msg.sender]].length);\n    }  \n    \n    \n    /* This function let's the owner check who is an admin\n    */\n    function isAdmin(address _adminAddr)\n      public\n      view \n      onlyOwner()\n      returns (bool) \n    {\n        return (admins[_adminAddr]);\n    }\n\n    /* This function let's a user check their own userID\n    */\n    function checkUserID()\n      public\n      view \n      verifyUser()\n      returns (uint _UserID)\n    {\n        return (userIDMaps[msg.sender]);\n    } \n      \n    /* This function let's a user check when they signed up\n    This uses an imported date time library\n    */\n    function checkSignUpDate()\n      public\n      view \n      verifyUser()\n      returns (uint _year, uint _month, uint _day)\n    {\n        uint _timestamp = users[userIDMaps[msg.sender]].date_joined;\n        _year = BokkyPooBahsDateTimeLibrary.getYear(_timestamp);\n        _month = BokkyPooBahsDateTimeLibrary.getMonth(_timestamp);\n        _day = BokkyPooBahsDateTimeLibrary.getDay(_timestamp);\n        return (\n        _year\n      , _month\n      , _day);\n    }\n\n    // ////////////////////////////////////////////////////////////// //\n    // /////////////////////// END OF FUNCTIONS ////////////////////////// //\n    // ////////////////////////////////////////////////////////////// //\n\n}\n",
  "sourcePath": "/home/hbm/Desktop/Truffle Projects/eth_decentralized_resume/contracts/Resume.sol",
  "compiler": {
    "name": "solc",
    "version": "0.5.0+commit.1d4f565a.Emscripten.clang"
  },
  "schemaVersion": "3.0.1",
  "updatedAt": "2019-01-17T00:52:06.004Z",
  "devdoc": {
    "methods": {
      "isOwner()": {
        "return": "true if `msg.sender` is the owner of the contract."
      },
      "owner()": {
        "return": "the address of the owner."
      },
      "renounceOwnership()": {
        "details": "Allows the current owner to relinquish control of the contract."
      },
      "transferOwnership(address)": {
        "details": "Allows the current owner to transfer control of the contract to a newOwner.",
        "params": {
          "newOwner": "The address to transfer ownership to."
        }
      }
    }
  },
  "userdoc": {
    "methods": {
      "renounceOwnership()": {
        "notice": "Renouncing to ownership will leave the contract without an owner. It will not be possible to call the functions with the `onlyOwner` modifier anymore."
      }
    }
  }
}